{
  "_format": "hh-sol-artifact-1",
  "contractName": "ReactionToken",
  "sourceName": "contracts/reaction/ReactionToken.sol",
  "abi": [
    {
      "inputs": [
        {
          "internalType": "address",
          "name": "host",
          "type": "address"
        },
        {
          "internalType": "address",
          "name": "cfa",
          "type": "address"
        },
        {
          "internalType": "address",
          "name": "stakingToken",
          "type": "address"
        },
        {
          "internalType": "address",
          "name": "superTokenFactory",
          "type": "address"
        },
        {
          "internalType": "string",
          "name": "reactionTokenName",
          "type": "string"
        },
        {
          "internalType": "string",
          "name": "reactionTokenSymbol",
          "type": "string"
        },
        {
          "internalType": "address",
          "name": "resolver",
          "type": "address"
        },
        {
          "internalType": "string",
          "name": "version",
          "type": "string"
        }
      ],
      "stateMutability": "nonpayable",
      "type": "constructor"
    },
    {
      "anonymous": false,
      "inputs": [
        {
          "indexed": true,
          "internalType": "address",
          "name": "owner",
          "type": "address"
        },
        {
          "indexed": true,
          "internalType": "address",
          "name": "spender",
          "type": "address"
        },
        {
          "indexed": false,
          "internalType": "uint256",
          "name": "value",
          "type": "uint256"
        }
      ],
      "name": "Approval",
      "type": "event"
    },
    {
      "anonymous": false,
      "inputs": [
        {
          "indexed": false,
          "internalType": "address",
          "name": "author",
          "type": "address"
        },
        {
          "indexed": false,
          "internalType": "uint256",
          "name": "amount",
          "type": "uint256"
        },
        {
          "indexed": false,
          "internalType": "uint256",
          "name": "totalStaked",
          "type": "uint256"
        }
      ],
      "name": "Staked",
      "type": "event"
    },
    {
      "anonymous": false,
      "inputs": [
        {
          "indexed": true,
          "internalType": "address",
          "name": "from",
          "type": "address"
        },
        {
          "indexed": true,
          "internalType": "address",
          "name": "to",
          "type": "address"
        },
        {
          "indexed": false,
          "internalType": "uint256",
          "name": "value",
          "type": "uint256"
        }
      ],
      "name": "Transfer",
      "type": "event"
    },
    {
      "inputs": [
        {
          "internalType": "address",
          "name": "owner",
          "type": "address"
        },
        {
          "internalType": "address",
          "name": "spender",
          "type": "address"
        }
      ],
      "name": "allowance",
      "outputs": [
        {
          "internalType": "uint256",
          "name": "",
          "type": "uint256"
        }
      ],
      "stateMutability": "view",
      "type": "function"
    },
    {
      "inputs": [
        {
          "internalType": "address",
          "name": "spender",
          "type": "address"
        },
        {
          "internalType": "uint256",
          "name": "amount",
          "type": "uint256"
        }
      ],
      "name": "approve",
      "outputs": [
        {
          "internalType": "bool",
          "name": "",
          "type": "bool"
        }
      ],
      "stateMutability": "nonpayable",
      "type": "function"
    },
    {
      "inputs": [
        {
          "internalType": "address",
          "name": "account",
          "type": "address"
        }
      ],
      "name": "balanceOf",
      "outputs": [
        {
          "internalType": "uint256",
          "name": "",
          "type": "uint256"
        }
      ],
      "stateMutability": "view",
      "type": "function"
    },
    {
      "inputs": [
        {
          "internalType": "contract ERC20WithTokenInfo",
          "name": "_token",
          "type": "address"
        }
      ],
      "name": "createSuperToken",
      "outputs": [
        {
          "internalType": "contract ISuperToken",
          "name": "superToken",
          "type": "address"
        }
      ],
      "stateMutability": "nonpayable",
      "type": "function"
    },
    {
      "inputs": [],
      "name": "decimals",
      "outputs": [
        {
          "internalType": "uint8",
          "name": "",
          "type": "uint8"
        }
      ],
      "stateMutability": "view",
      "type": "function"
    },
    {
      "inputs": [
        {
          "internalType": "address",
          "name": "spender",
          "type": "address"
        },
        {
          "internalType": "uint256",
          "name": "subtractedValue",
          "type": "uint256"
        }
      ],
      "name": "decreaseAllowance",
      "outputs": [
        {
          "internalType": "bool",
          "name": "",
          "type": "bool"
        }
      ],
      "stateMutability": "nonpayable",
      "type": "function"
    },
    {
      "inputs": [
        {
          "internalType": "contract ERC20WithTokenInfo",
          "name": "_token",
          "type": "address"
        }
      ],
      "name": "getSuperToken",
      "outputs": [
        {
          "internalType": "address",
          "name": "tokenAddress",
          "type": "address"
        }
      ],
      "stateMutability": "view",
      "type": "function"
    },
    {
      "inputs": [
        {
          "internalType": "address",
          "name": "spender",
          "type": "address"
        },
        {
          "internalType": "uint256",
          "name": "addedValue",
          "type": "uint256"
        }
      ],
      "name": "increaseAllowance",
      "outputs": [
        {
          "internalType": "bool",
          "name": "",
          "type": "bool"
        }
      ],
      "stateMutability": "nonpayable",
      "type": "function"
    },
    {
      "inputs": [
        {
          "internalType": "contract ERC20WithTokenInfo",
          "name": "_token",
          "type": "address"
        }
      ],
      "name": "isSuperToken",
      "outputs": [
        {
          "internalType": "bool",
          "name": "",
          "type": "bool"
        }
      ],
      "stateMutability": "view",
      "type": "function"
    },
    {
      "inputs": [],
      "name": "name",
      "outputs": [
        {
          "internalType": "string",
          "name": "",
          "type": "string"
        }
      ],
      "stateMutability": "view",
      "type": "function"
    },
    {
      "inputs": [
        {
          "internalType": "uint256",
          "name": "amount",
          "type": "uint256"
        },
        {
          "internalType": "address",
          "name": "nftAddress",
          "type": "address"
        }
      ],
      "name": "stakeAndMint",
      "outputs": [],
      "stateMutability": "nonpayable",
      "type": "function"
    },
    {
      "inputs": [],
      "name": "symbol",
      "outputs": [
        {
          "internalType": "string",
          "name": "",
          "type": "string"
        }
      ],
      "stateMutability": "view",
      "type": "function"
    },
    {
      "inputs": [],
      "name": "totalSupply",
      "outputs": [
        {
          "internalType": "uint256",
          "name": "",
          "type": "uint256"
        }
      ],
      "stateMutability": "view",
      "type": "function"
    },
    {
      "inputs": [
        {
          "internalType": "address",
          "name": "recipient",
          "type": "address"
        },
        {
          "internalType": "uint256",
          "name": "amount",
          "type": "uint256"
        }
      ],
      "name": "transfer",
      "outputs": [
        {
          "internalType": "bool",
          "name": "",
          "type": "bool"
        }
      ],
      "stateMutability": "nonpayable",
      "type": "function"
    },
    {
      "inputs": [
        {
          "internalType": "address",
          "name": "sender",
          "type": "address"
        },
        {
          "internalType": "address",
          "name": "recipient",
          "type": "address"
        },
        {
          "internalType": "uint256",
          "name": "amount",
          "type": "uint256"
        }
      ],
      "name": "transferFrom",
      "outputs": [
        {
          "internalType": "bool",
          "name": "",
          "type": "bool"
        }
      ],
      "stateMutability": "nonpayable",
      "type": "function"
    }
  ],
  "bytecode": "0x6080604052600c80546001600160a01b031665af7151902add60a11b1790553480156200002b57600080fd5b5060405162001c1638038062001c168339810160408190526200004e916200033f565b83518490849062000067906003906020850190620001c9565b5080516200007d906004906020840190620001c9565b5050506001600160a01b038816620000a557634e487b7160e01b600052600160045260246000fd5b6001600160a01b038716620000ca57634e487b7160e01b600052600160045260246000fd5b6001600160a01b038616620000ef57634e487b7160e01b600052600160045260246000fd5b6001600160a01b0385166200011457634e487b7160e01b600052600160045260246000fd5b6001600160a01b0382166200013957634e487b7160e01b600052600160045260246000fd5b600580546001600160a01b03808b166001600160a01b031992831617909255600680548a8416908316179055600780549285169290911691909117905580516200018b906008906020840190620001c9565b5050600980546001600160a01b039687166001600160a01b031991821617909155600c805495909616941693909317909355506200047e9350505050565b828054620001d7906200042b565b90600052602060002090601f016020900481019282620001fb576000855562000246565b82601f106200021657805160ff191683800117855562000246565b8280016001018555821562000246579182015b828111156200024657825182559160200191906001019062000229565b506200025492915062000258565b5090565b5b8082111562000254576000815560010162000259565b80516001600160a01b03811681146200028757600080fd5b919050565b600082601f8301126200029d578081fd5b81516001600160401b0380821115620002ba57620002ba62000468565b604051601f8301601f19908116603f01168101908282118183101715620002e557620002e562000468565b8160405283815260209250868385880101111562000301578485fd5b8491505b8382101562000324578582018301518183018401529082019062000305565b838211156200033557848385830101525b9695505050505050565b600080600080600080600080610100898b0312156200035c578384fd5b62000367896200026f565b97506200037760208a016200026f565b96506200038760408a016200026f565b95506200039760608a016200026f565b60808a01519095506001600160401b0380821115620003b4578586fd5b620003c28c838d016200028c565b955060a08b0151915080821115620003d8578485fd5b620003e68c838d016200028c565b9450620003f660c08c016200026f565b935060e08b01519150808211156200040c578283fd5b506200041b8b828c016200028c565b9150509295985092959890939650565b6002810460018216806200044057607f821691505b602082108114156200046257634e487b7160e01b600052602260045260246000fd5b50919050565b634e487b7160e01b600052604160045260246000fd5b611788806200048e6000396000f3fe608060405234801561001057600080fd5b50600436106100f55760003560e01c806370a0823111610097578063a9059cbb11610066578063a9059cbb14610204578063ce69fd6f14610217578063dd62ed3e1461022a578063e0d6ce6b14610263576100f5565b806370a08231146101ad57806395d89b41146101d6578063a457c2d7146101de578063a7403a32146101f1576100f5565b806318160ddd116100d357806318160ddd1461016657806323b872dd14610178578063313ce5671461018b578063395093511461019a576100f5565b806306fdde03146100fa578063095ea7b3146101185780630c08a5c41461013b575b600080fd5b610102610278565b60405161010f9190611686565b60405180910390f35b61012b610126366004611308565b61030a565b604051901515815260200161010f565b61014e610149366004611258565b610320565b6040516001600160a01b03909116815260200161010f565b6002545b60405190815260200161010f565b61012b6101863660046112c8565b610441565b6040516012815260200161010f565b61012b6101a8366004611308565b6104f0565b61016a6101bb366004611258565b6001600160a01b031660009081526020819052604090205490565b61010261052c565b61012b6101ec366004611308565b61053b565b61014e6101ff366004611258565b6105d4565b61012b610212366004611308565b61081c565b61012b610225366004611258565b610829565b61016a610238366004611290565b6001600160a01b03918216600090815260016020908152604080832093909416825291909152205490565b6102766102713660046113b9565b610959565b005b606060038054610287906116e9565b80601f01602080910402602001604051908101604052809291908181526020018280546102b3906116e9565b80156103005780601f106102d557610100808354040283529160200191610300565b820191906000526020600020905b8154815290600101906020018083116102e357829003601f168201915b5050505050905090565b6000610317338484610e11565b50600192915050565b6000806008836001600160a01b03166395d89b416040518163ffffffff1660e01b815260040160006040518083038186803b15801561035e57600080fd5b505afa158015610372573d6000803e3d6000fd5b505050506040513d6000823e601f3d908101601f1916820160405261039a9190810190611353565b6040516020016103ab929190611514565b60408051601f198184030181529082905260075463349f642f60e11b83529092506001600160a01b03169063693ec85e906103ea908490600401611686565b60206040518083038186803b15801561040257600080fd5b505afa158015610416573d6000803e3d6000fd5b505050506040513d601f19601f8201168201806040525081019061043a9190611274565b9392505050565b600061044e848484610f35565b6001600160a01b0384166000908152600160209081526040808320338452909152902054828110156104d85760405162461bcd60e51b815260206004820152602860248201527f45524332303a207472616e7366657220616d6f756e74206578636565647320616044820152676c6c6f77616e636560c01b60648201526084015b60405180910390fd5b6104e58533858403610e11565b506001949350505050565b3360008181526001602090815260408083206001600160a01b03871684529091528120549091610317918590610527908690611699565b610e11565b606060048054610287906116e9565b3360009081526001602090815260408083206001600160a01b0386168452909152812054828110156105bd5760405162461bcd60e51b815260206004820152602560248201527f45524332303a2064656372656173656420616c6c6f77616e63652062656c6f77604482015264207a65726f60d81b60648201526084016104cf565b6105ca3385858403610e11565b5060019392505050565b600080600560009054906101000a90046001600160a01b03166001600160a01b031663731aed6e6040518163ffffffff1660e01b815260040160206040518083038186803b15801561062557600080fd5b505afa158015610639573d6000803e3d6000fd5b505050506040513d601f19601f8201168201806040525081019061065d9190611274565b90506000836001600160a01b03166306fdde036040518163ffffffff1660e01b815260040160006040518083038186803b15801561069a57600080fd5b505afa1580156106ae573d6000803e3d6000fd5b505050506040513d6000823e601f3d908101601f191682016040526106d69190810190611353565b6040516020016106e69190611570565b60405160208183030381529060405290506000846001600160a01b03166395d89b416040518163ffffffff1660e01b815260040160006040518083038186803b15801561073257600080fd5b505afa158015610746573d6000803e3d6000fd5b505050506040513d6000823e601f3d908101601f1916820160405261076e9190810190611353565b60405160200161077e91906114a1565b60408051601f198184030181529082905263431f148160e01b825291506001600160a01b0384169063431f1481906107c1908890600290879087906004016115de565b602060405180830381600087803b1580156107db57600080fd5b505af11580156107ef573d6000803e3d6000fd5b505050506040513d601f19601f820116820180604052508101906108139190611274565b95945050505050565b6000610317338484610f35565b6000806008836001600160a01b03166395d89b416040518163ffffffff1660e01b815260040160006040518083038186803b15801561086757600080fd5b505afa15801561087b573d6000803e3d6000fd5b505050506040513d6000823e601f3d908101601f191682016040526108a39190810190611353565b6040516020016108b49291906114c6565b60408051601f198184030181529082905260075463349f642f60e11b83529092506001600160a01b038086169291169063693ec85e906108f8908590600401611686565b60206040518083038186803b15801561091057600080fd5b505afa158015610924573d6000803e3d6000fd5b505050506040513d601f19601f820116820180604052508101906109489190611274565b6001600160a01b0316149392505050565b6001600160a01b03811661096c57600080fd5b6009546001600160a01b03166323b872dd336040516001600160e01b031960e084901b1681526001600160a01b03909116600482015230602482015260448101859052606401602060405180830381600087803b1580156109cc57600080fd5b505af11580156109e0573d6000803e3d6000fd5b505050506040513d601f19601f82011682018060405250810190610a049190611333565b50336000908152600d6020526040902054610a20908390611699565b336000908152600d6020526040902055610a3a8183611105565b600954610a4f906001600160a01b0316610829565b610a6d57600954610a68906001600160a01b0316610320565b610a7a565b6009546001600160a01b03165b600a80546001600160a01b0319166001600160a01b03928316179081905516610ad357600954610ab2906001600160a01b03166105d4565b600a80546001600160a01b0319166001600160a01b03929092169190911790555b600954600a54604051636eb1769f60e11b81523060048201526001600160a01b0391821660248201528492919091169063dd62ed3e9060440160206040518083038186803b158015610b2457600080fd5b505afa158015610b38573d6000803e3d6000fd5b505050506040513d601f19601f82011682018060405250810190610b5c91906113a1565b1015610c6a57600954600a5460405163095ea7b360e01b81526001600160a01b03918216600482015264e8d4a50fff6024820152600092919091169063095ea7b390604401602060405180830381600087803b158015610bbb57600080fd5b505af1158015610bcf573d6000803e3d6000fd5b505050506040513d601f19601f82011682018060405250810190610bf39190611333565b905080610c685760405162461bcd60e51b815260206004820152603860248201527f5265616374696f6e546f6b656e3a206661696c656420746f20617070726f766560448201527f20616c6c6f77616e636520746f205375706572546f6b656e000000000000000060648201526084016104cf565b505b600a546040516345977d0360e01b8152600481018490526001600160a01b03909116906345977d0390602401600060405180830381600087803b158015610cb057600080fd5b505af1158015610cc4573d6000803e3d6000fd5b5050600554600654600a54600c546040805160008152602081019091526001600160a01b0394851696506339255d5b95509284169363317e182f60e11b93610d229391909116913391600160a01b909104600b0b906044810161159e565b60408051601f198184030181529181526020820180516001600160e01b03166001600160e01b03199485161790525160e085901b9092168252610d68929160040161163f565b600060405180830381600087803b158015610d8257600080fd5b505af1158015610d96573d6000803e3d6000fd5b505050506040513d6000823e601f3d908101601f19168201604052610dbe9190810190611353565b50336000818152600d602090815260409182902054825193845290830185905282820152517f1449c6dd7851abc30abf37f57715f492010519147cc2652fbc38202c18a6ee909181900360600190a15050565b6001600160a01b038316610e735760405162461bcd60e51b8152602060048201526024808201527f45524332303a20617070726f76652066726f6d20746865207a65726f206164646044820152637265737360e01b60648201526084016104cf565b6001600160a01b038216610ed45760405162461bcd60e51b815260206004820152602260248201527f45524332303a20617070726f766520746f20746865207a65726f206164647265604482015261737360f01b60648201526084016104cf565b6001600160a01b0383811660008181526001602090815260408083209487168084529482529182902085905590518481527f8c5be1e5ebec7d5bd14f71427d1e84f3dd0314c0f7b2291e5b200ac8c7c3b925910160405180910390a3505050565b6001600160a01b038316610f995760405162461bcd60e51b815260206004820152602560248201527f45524332303a207472616e736665722066726f6d20746865207a65726f206164604482015264647265737360d81b60648201526084016104cf565b6001600160a01b038216610ffb5760405162461bcd60e51b815260206004820152602360248201527f45524332303a207472616e7366657220746f20746865207a65726f206164647260448201526265737360e81b60648201526084016104cf565b6001600160a01b038316600090815260208190526040902054818110156110735760405162461bcd60e51b815260206004820152602660248201527f45524332303a207472616e7366657220616d6f756e7420657863656564732062604482015265616c616e636560d01b60648201526084016104cf565b6001600160a01b038085166000908152602081905260408082208585039055918516815290812080548492906110aa908490611699565b92505081905550826001600160a01b0316846001600160a01b03167fddf252ad1be2c89b69c2b068fc378daa952ba7f163c4a11628f55a4df523b3ef846040516110f691815260200190565b60405180910390a35b50505050565b6001600160a01b03821661115b5760405162461bcd60e51b815260206004820152601f60248201527f45524332303a206d696e7420746f20746865207a65726f20616464726573730060448201526064016104cf565b806002600082825461116d9190611699565b90915550506001600160a01b0382166000908152602081905260408120805483929061119a908490611699565b90915550506040518181526001600160a01b038316906000907fddf252ad1be2c89b69c2b068fc378daa952ba7f163c4a11628f55a4df523b3ef9060200160405180910390a35050565b600067ffffffffffffffff808411156111ff576111ff611724565b604051601f8501601f19908116603f0116810190828211818310171561122757611227611724565b8160405280935085815286868601111561124057600080fd5b61124e8660208301876116bd565b5050509392505050565b600060208284031215611269578081fd5b813561043a8161173a565b600060208284031215611285578081fd5b815161043a8161173a565b600080604083850312156112a2578081fd5b82356112ad8161173a565b915060208301356112bd8161173a565b809150509250929050565b6000806000606084860312156112dc578081fd5b83356112e78161173a565b925060208401356112f78161173a565b929592945050506040919091013590565b6000806040838503121561131a578182fd5b82356113258161173a565b946020939093013593505050565b600060208284031215611344578081fd5b8151801515811461043a578182fd5b600060208284031215611364578081fd5b815167ffffffffffffffff81111561137a578182fd5b8201601f8101841361138a578182fd5b611399848251602084016111e4565b949350505050565b6000602082840312156113b2578081fd5b5051919050565b600080604083850312156113cb578182fd5b8235915060208301356112bd8161173a565b600081518084526113f58160208601602086016116bd565b601f01601f19169290920160200192915050565b80546000906002810460018083168061142357607f831692505b602080841082141561144357634e487b7160e01b86526022600452602486fd5b818015611457576001811461146857611495565b60ff19861689528489019650611495565b60008881526020902060005b8681101561148d5781548b820152908501908301611474565b505084890196505b50505050505092915050565b600082516114b38184602087016116bd565b600f60fb1b920191825250600101919050565b60006a7375706572746f6b656e7360a81b8252601760f91b80600b8401526114f1600c840186611409565b9081528351906115088260018301602088016116bd565b01600101949350505050565b60006a7375706572746f6b656e7360a81b8252601760f91b80600b84015261153f600c840186611409565b9081528351906115568260018301602088016116bd565b600f60fb1b91016001810191909152600201949350505050565b600065029bab832b9160d51b825282516115918160068501602087016116bd565b9190910160060192915050565b6001600160a01b03858116825284166020820152600b83900b60408201526080606082018190526000906115d4908301846113dd565b9695505050505050565b6001600160a01b038516815260006003851061160857634e487b7160e01b81526021600452602481fd5b8460208301526080604083015261162260808301856113dd565b828103606084015261163481856113dd565b979650505050505050565b6001600160a01b0383168152606060208201819052600090611663908301846113dd565b8281036040938401526002815261060f60f31b6020820152919091019392505050565b60006020825261043a60208301846113dd565b600082198211156116b857634e487b7160e01b81526011600452602481fd5b500190565b60005b838110156116d85781810151838201526020016116c0565b838111156110ff5750506000910152565b6002810460018216806116fd57607f821691505b6020821081141561171e57634e487b7160e01b600052602260045260246000fd5b50919050565b634e487b7160e01b600052604160045260246000fd5b6001600160a01b038116811461174f57600080fd5b5056fea264697066735822122039507d097ace5678d058e5986cc3a1c0d134a30a22b23dda3a32e6c3e7af869f64736f6c63430008020033",
  "linkReferences": {},
  "deployedLinkReferences": {}
}