{
  "_format": "hh-sol-artifact-1",
  "contractName": "ReactionFactory",
  "sourceName": "contracts/reaction/ReactionFactory.sol",
  "abi": [
    {
      "anonymous": false,
      "inputs": [
        {
          "indexed": false,
          "internalType": "address",
          "name": "previousAdmin",
          "type": "address"
        },
        {
          "indexed": false,
          "internalType": "address",
          "name": "newAdmin",
          "type": "address"
        }
      ],
      "name": "AdminChanged",
      "type": "event"
    },
    {
      "anonymous": false,
      "inputs": [
        {
          "indexed": true,
          "internalType": "address",
          "name": "beacon",
          "type": "address"
        }
      ],
      "name": "BeaconUpgraded",
      "type": "event"
    },
    {
      "anonymous": false,
      "inputs": [
        {
          "indexed": false,
          "internalType": "address",
          "name": "creator",
          "type": "address"
        },
        {
          "indexed": false,
          "internalType": "address",
          "name": "reactionContractAddr",
          "type": "address"
        },
        {
          "indexed": false,
          "internalType": "address",
          "name": "stakingToken",
          "type": "address"
        },
        {
          "indexed": false,
          "internalType": "string",
          "name": "reactionTokenName",
          "type": "string"
        },
        {
          "indexed": false,
          "internalType": "string",
          "name": "reactionTokenSymbol",
          "type": "string"
        }
      ],
      "name": "ReactionDeployed",
      "type": "event"
    },
    {
      "anonymous": false,
      "inputs": [
        {
          "indexed": true,
          "internalType": "address",
          "name": "implementation",
          "type": "address"
        }
      ],
      "name": "Upgraded",
      "type": "event"
    },
    {
      "inputs": [
        {
          "internalType": "address",
          "name": "stakingToken",
          "type": "address"
        },
        {
          "internalType": "string",
          "name": "reactionTokenName",
          "type": "string"
        },
        {
          "internalType": "string",
          "name": "reactionTokenSymbol",
          "type": "string"
        }
      ],
      "name": "deployReaction",
      "outputs": [
        {
          "internalType": "address",
          "name": "",
          "type": "address"
        }
      ],
      "stateMutability": "nonpayable",
      "type": "function"
    },
    {
      "inputs": [
        {
          "internalType": "address",
          "name": "sfHost",
          "type": "address"
        },
        {
          "internalType": "address",
          "name": "sfCfa",
          "type": "address"
        },
        {
          "internalType": "address",
          "name": "sfSuperTokenFactory",
          "type": "address"
        },
        {
          "internalType": "address",
          "name": "sfResolver",
          "type": "address"
        },
        {
          "internalType": "string",
          "name": "sfVersion",
          "type": "string"
        }
      ],
      "name": "initialize",
      "outputs": [],
      "stateMutability": "payable",
      "type": "function"
    },
    {
      "inputs": [
        {
          "internalType": "address",
          "name": "newImplementation",
          "type": "address"
        }
      ],
      "name": "upgradeTo",
      "outputs": [],
      "stateMutability": "nonpayable",
      "type": "function"
    },
    {
      "inputs": [
        {
          "internalType": "address",
          "name": "newImplementation",
          "type": "address"
        },
        {
          "internalType": "bytes",
          "name": "data",
          "type": "bytes"
        }
      ],
      "name": "upgradeToAndCall",
      "outputs": [],
      "stateMutability": "payable",
      "type": "function"
    }
  ],
  "bytecode": "0x608060405234801561001057600080fd5b50612a16806100206000396000f3fe608060405260043610620000445760003560e01c8063225f6c0614620000495780632fb3b361146200008a5780633659cfe614620000a35780634f1ef28614620000c8575b600080fd5b3480156200005657600080fd5b506200006e6200006836600462000a9e565b620000df565b6040516001600160a01b03909116815260200160405180910390f35b620000a16200009b366004620009ae565b620001b6565b005b348015620000b057600080fd5b50620000a1620000c236600462000991565b62000399565b620000a1620000d936600462000a38565b620003c4565b60006001600160a01b038416620000f557600080fd5b60008054600154600254600354604051620100009094046001600160a01b0390811694938116938a938216928a928a92911690600490620001369062000826565b6200014998979695949392919062000b64565b604051809103906000f08015801562000166573d6000803e3d6000fd5b509050807fae3952340cf4f42e0dd174b8136d45bf88d05cc1b41096df7ed8b7624d52390b3382888888604051620001a395949392919062000c7a565b60405180910390a19150505b9392505050565b600054610100900460ff1680620001d0575060005460ff16155b620002395760405162461bcd60e51b815260206004820152602e60248201527f496e697469616c697a61626c653a20636f6e747261637420697320616c72656160448201526d191e481a5b9a5d1a585b1a5e995960921b60648201526084015b60405180910390fd5b600054610100900460ff1615801562000265576000805460ff1961ff0019909116610100171660011790555b6001600160a01b0386166200028a57634e487b7160e01b600052600160045260246000fd5b6001600160a01b038516620002af57634e487b7160e01b600052600160045260246000fd5b6001600160a01b038416620002d457634e487b7160e01b600052600160045260246000fd5b6001600160a01b038316620002f957634e487b7160e01b600052600160045260246000fd5b6000805462010000600160b01b031916620100006001600160a01b038981169190910291909117909155600180546001600160a01b0319908116888416179091556002805482168784161790556003805490911691851691909117905581516200036b90600490602085019062000834565b50600580546001600160a01b03191633179055801562000391576000805461ff00191690555b505050505050565b620003a481620003e1565b620003c18160405180602001604052806000815250600062000449565b50565b620003cf82620003e1565b620003dd8282600162000449565b5050565b6005546001600160a01b03163314620003c15760405162461bcd60e51b8152602060048201526024808201527f5265616374696f6e466163746f72793a2043616c6c6572206973206e6f74206f6044820152633bb732b960e11b606482015260840162000230565b60006200047d7f360894a13ba1a3210667c828492db98dca3e2076cc3735a920a3ca505d382bbc546001600160a01b031690565b90506200048a84620005df565b600083511180620004985750815b15620004ac57620004aa84846200068f565b505b7f4910fdfa16fed3260ed0e7147f7cc6da11a60208b5b9406d12a635614ffd9143805460ff16620005d857805460ff191660011781556040516001600160a01b03831660248201526200052e90869060440160408051601f198184030181529190526020810180516001600160e01b0316631b2ce7f360e11b1790526200068f565b50805460ff191681557f360894a13ba1a3210667c828492db98dca3e2076cc3735a920a3ca505d382bbc546001600160a01b03838116911614620005cd5760405162461bcd60e51b815260206004820152602f60248201527f45524331393637557067726164653a207570677261646520627265616b73206660448201526e75727468657220757067726164657360881b606482015260840162000230565b620005d885620006b7565b5050505050565b620005ea81620006f9565b6200064e5760405162461bcd60e51b815260206004820152602d60248201527f455243313936373a206e657720696d706c656d656e746174696f6e206973206e60448201526c1bdd08184818dbdb9d1c9858dd609a1b606482015260840162000230565b7f360894a13ba1a3210667c828492db98dca3e2076cc3735a920a3ca505d382bbc80546001600160a01b0319166001600160a01b0392909216919091179055565b6060620001af8383604051806060016040528060278152602001620029ba6027913962000703565b620006c281620005df565b6040516001600160a01b038216907fbc7cd75a20ee27fd9adebab32041f755214dbc6bffa90cc0225b39da2e5c2d3b90600090a250565b803b15155b919050565b60606200071084620006f9565b6200076d5760405162461bcd60e51b815260206004820152602660248201527f416464726573733a2064656c65676174652063616c6c20746f206e6f6e2d636f6044820152651b9d1c9858dd60d21b606482015260840162000230565b600080856001600160a01b0316856040516200078a919062000b46565b600060405180830381855af49150503d8060008114620007c7576040519150601f19603f3d011682016040523d82523d6000602084013e620007cc565b606091505b5091509150620007de828286620007e8565b9695505050505050565b60608315620007f9575081620001af565b8251156200080a5782518084602001fd5b8160405162461bcd60e51b815260040162000230919062000cd0565b611c4e8062000d6c83390190565b828054620008429062000d18565b90600052602060002090601f016020900481019282620008665760008555620008b1565b82601f106200088157805160ff1916838001178555620008b1565b82800160010185558215620008b1579182015b82811115620008b157825182559160200191906001019062000894565b50620008bf929150620008c3565b5090565b5b80821115620008bf5760008155600101620008c4565b600067ffffffffffffffff80841115620008f857620008f862000d55565b604051601f8501601f19908116603f0116810190828211818310171562000923576200092362000d55565b816040528093508581528686860111156200093d57600080fd5b858560208301376000602087830101525050509392505050565b80356001600160a01b0381168114620006fe57600080fd5b600082601f83011262000980578081fd5b620001af83833560208501620008da565b600060208284031215620009a3578081fd5b620001af8262000957565b600080600080600060a08688031215620009c6578081fd5b620009d18662000957565b9450620009e16020870162000957565b9350620009f16040870162000957565b925062000a016060870162000957565b9150608086013567ffffffffffffffff81111562000a1d578182fd5b62000a2b888289016200096f565b9150509295509295909350565b6000806040838503121562000a4b578182fd5b62000a568362000957565b9150602083013567ffffffffffffffff81111562000a72578182fd5b8301601f8101851362000a83578182fd5b62000a9485823560208401620008da565b9150509250929050565b60008060006060848603121562000ab3578283fd5b62000abe8462000957565b9250602084013567ffffffffffffffff8082111562000adb578384fd5b62000ae9878388016200096f565b9350604086013591508082111562000aff578283fd5b5062000b0e868287016200096f565b9150509250925092565b6000815180845262000b3281602086016020860162000ce5565b601f01601f19169290920160200192915050565b6000825162000b5a81846020870162000ce5565b9190910192915050565b600061010060018060a01b03808c1684526020818c1681860152818b166040860152818a16606086015282608086015262000ba28386018a62000b18565b925084830360a086015262000bb8838962000b18565b91871660c086015284820360e0860152855491925083916002810460018083168062000be557607f831692505b84831081141562000c0457634e487b7160e01b88526022600452602488fd5b82875260208701965080801562000c24576001811462000c365762000c62565b60ff1985168852858801965062000c62565b60008b815260209020895b8581101562000c5c5781548a82015290840190870162000c41565b89019750505b50505050505080925050509998505050505050505050565b6001600160a01b03868116825285811660208301528416604082015260a06060820181905260009062000cb09083018562000b18565b828103608084015262000cc4818562000b18565b98975050505050505050565b600060208252620001af602083018462000b18565b60005b8381101562000d0257818101518382015260200162000ce8565b8381111562000d12576000848401525b50505050565b60028104600182168062000d2d57607f821691505b6020821081141562000d4f57634e487b7160e01b600052602260045260246000fd5b50919050565b634e487b7160e01b600052604160045260246000fdfe6080604052600c80546001600160a01b031665af7151902add60a11b1790553480156200002b57600080fd5b5060405162001c4e38038062001c4e8339810160408190526200004e916200033f565b83518490849062000067906003906020850190620001c9565b5080516200007d906004906020840190620001c9565b5050506001600160a01b038816620000a557634e487b7160e01b600052600160045260246000fd5b6001600160a01b038716620000ca57634e487b7160e01b600052600160045260246000fd5b6001600160a01b038616620000ef57634e487b7160e01b600052600160045260246000fd5b6001600160a01b0385166200011457634e487b7160e01b600052600160045260246000fd5b6001600160a01b0382166200013957634e487b7160e01b600052600160045260246000fd5b600580546001600160a01b03808b166001600160a01b031992831617909255600680548a8416908316179055600780549285169290911691909117905580516200018b906008906020840190620001c9565b5050600980546001600160a01b039687166001600160a01b031991821617909155600c805495909616941693909317909355506200047e9350505050565b828054620001d7906200042b565b90600052602060002090601f016020900481019282620001fb576000855562000246565b82601f106200021657805160ff191683800117855562000246565b8280016001018555821562000246579182015b828111156200024657825182559160200191906001019062000229565b506200025492915062000258565b5090565b5b8082111562000254576000815560010162000259565b80516001600160a01b03811681146200028757600080fd5b919050565b600082601f8301126200029d578081fd5b81516001600160401b0380821115620002ba57620002ba62000468565b604051601f8301601f19908116603f01168101908282118183101715620002e557620002e562000468565b8160405283815260209250868385880101111562000301578485fd5b8491505b8382101562000324578582018301518183018401529082019062000305565b838211156200033557848385830101525b9695505050505050565b600080600080600080600080610100898b0312156200035c578384fd5b62000367896200026f565b97506200037760208a016200026f565b96506200038760408a016200026f565b95506200039760608a016200026f565b60808a01519095506001600160401b0380821115620003b4578586fd5b620003c28c838d016200028c565b955060a08b0151915080821115620003d8578485fd5b620003e68c838d016200028c565b9450620003f660c08c016200026f565b935060e08b01519150808211156200040c578283fd5b506200041b8b828c016200028c565b9150509295985092959890939650565b6002810460018216806200044057607f821691505b602082108114156200046257634e487b7160e01b600052602260045260246000fd5b50919050565b634e487b7160e01b600052604160045260246000fd5b6117c0806200048e6000396000f3fe608060405234801561001057600080fd5b50600436106100f55760003560e01c806370a0823111610097578063a9059cbb11610066578063a9059cbb14610204578063ce69fd6f14610217578063dd62ed3e1461022a578063e0d6ce6b14610263576100f5565b806370a08231146101ad57806395d89b41146101d6578063a457c2d7146101de578063a7403a32146101f1576100f5565b806318160ddd116100d357806318160ddd1461016657806323b872dd14610178578063313ce5671461018b578063395093511461019a576100f5565b806306fdde03146100fa578063095ea7b3146101185780630c08a5c41461013b575b600080fd5b610102610278565b60405161010f919061169d565b60405180910390f35b61012b61012636600461131f565b61030a565b604051901515815260200161010f565b61014e61014936600461126f565b610320565b6040516001600160a01b03909116815260200161010f565b6002545b60405190815260200161010f565b61012b6101863660046112df565b610441565b6040516012815260200161010f565b61012b6101a836600461131f565b6104f0565b61016a6101bb36600461126f565b6001600160a01b031660009081526020819052604090205490565b61010261052c565b61012b6101ec36600461131f565b61053b565b61014e6101ff36600461126f565b6105d4565b61012b61021236600461131f565b61081c565b61012b61022536600461126f565b610829565b61016a6102383660046112a7565b6001600160a01b03918216600090815260016020908152604080832093909416825291909152205490565b6102766102713660046113d0565b610959565b005b6060600380546102879061170b565b80601f01602080910402602001604051908101604052809291908181526020018280546102b39061170b565b80156103005780601f106102d557610100808354040283529160200191610300565b820191906000526020600020905b8154815290600101906020018083116102e357829003601f168201915b5050505050905090565b6000610317338484610e28565b50600192915050565b6000806008836001600160a01b03166395d89b416040518163ffffffff1660e01b815260040160006040518083038186803b15801561035e57600080fd5b505afa158015610372573d6000803e3d6000fd5b505050506040513d6000823e601f3d908101601f1916820160405261039a919081019061136a565b6040516020016103ab92919061152b565b60408051601f198184030181529082905260075463349f642f60e11b83529092506001600160a01b03169063693ec85e906103ea90849060040161169d565b60206040518083038186803b15801561040257600080fd5b505afa158015610416573d6000803e3d6000fd5b505050506040513d601f19601f8201168201806040525081019061043a919061128b565b9392505050565b600061044e848484610f4c565b6001600160a01b0384166000908152600160209081526040808320338452909152902054828110156104d85760405162461bcd60e51b815260206004820152602860248201527f45524332303a207472616e7366657220616d6f756e74206578636565647320616044820152676c6c6f77616e636560c01b60648201526084015b60405180910390fd5b6104e58533858403610e28565b506001949350505050565b3360008181526001602090815260408083206001600160a01b038716845290915281205490916103179185906105279086906116b0565b610e28565b6060600480546102879061170b565b3360009081526001602090815260408083206001600160a01b0386168452909152812054828110156105bd5760405162461bcd60e51b815260206004820152602560248201527f45524332303a2064656372656173656420616c6c6f77616e63652062656c6f77604482015264207a65726f60d81b60648201526084016104cf565b6105ca3385858403610e28565b5060019392505050565b600080600560009054906101000a90046001600160a01b03166001600160a01b031663731aed6e6040518163ffffffff1660e01b815260040160206040518083038186803b15801561062557600080fd5b505afa158015610639573d6000803e3d6000fd5b505050506040513d601f19601f8201168201806040525081019061065d919061128b565b90506000836001600160a01b03166306fdde036040518163ffffffff1660e01b815260040160006040518083038186803b15801561069a57600080fd5b505afa1580156106ae573d6000803e3d6000fd5b505050506040513d6000823e601f3d908101601f191682016040526106d6919081019061136a565b6040516020016106e69190611587565b60405160208183030381529060405290506000846001600160a01b03166395d89b416040518163ffffffff1660e01b815260040160006040518083038186803b15801561073257600080fd5b505afa158015610746573d6000803e3d6000fd5b505050506040513d6000823e601f3d908101601f1916820160405261076e919081019061136a565b60405160200161077e91906114b8565b60408051601f198184030181529082905263431f148160e01b825291506001600160a01b0384169063431f1481906107c1908890600290879087906004016115f5565b602060405180830381600087803b1580156107db57600080fd5b505af11580156107ef573d6000803e3d6000fd5b505050506040513d601f19601f82011682018060405250810190610813919061128b565b95945050505050565b6000610317338484610f4c565b6000806008836001600160a01b03166395d89b416040518163ffffffff1660e01b815260040160006040518083038186803b15801561086757600080fd5b505afa15801561087b573d6000803e3d6000fd5b505050506040513d6000823e601f3d908101601f191682016040526108a3919081019061136a565b6040516020016108b49291906114dd565b60408051601f198184030181529082905260075463349f642f60e11b83529092506001600160a01b038086169291169063693ec85e906108f890859060040161169d565b60206040518083038186803b15801561091057600080fd5b505afa158015610924573d6000803e3d6000fd5b505050506040513d601f19601f82011682018060405250810190610948919061128b565b6001600160a01b0316149392505050565b6001600160a01b03811661096c57600080fd5b6009546001600160a01b03166323b872dd336040516001600160e01b031960e084901b1681526001600160a01b03909116600482015230602482015260448101859052606401602060405180830381600087803b1580156109cc57600080fd5b505af11580156109e0573d6000803e3d6000fd5b505050506040513d601f19601f82011682018060405250810190610a04919061134a565b50336000908152600d6020526040902054610a209083906116b0565b336000908152600d6020526040902055610a3a818361111c565b600954610a4f906001600160a01b0316610829565b610a6d57600954610a68906001600160a01b0316610320565b610a7a565b6009546001600160a01b03165b600a80546001600160a01b0319166001600160a01b03928316179081905516610ad357600954610ab2906001600160a01b03166105d4565b600a80546001600160a01b0319166001600160a01b03929092169190911790555b600954600a54604051636eb1769f60e11b81523060048201526001600160a01b0391821660248201528492919091169063dd62ed3e9060440160206040518083038186803b158015610b2457600080fd5b505afa158015610b38573d6000803e3d6000fd5b505050506040513d601f19601f82011682018060405250810190610b5c91906113b8565b1015610c8157600954600a5460009182916001600160a01b039182169163095ea7b39116610b8b6001856116c8565b6040516001600160e01b031960e085901b1681526001600160a01b0390921660048301526024820152604401602060405180830381600087803b158015610bd157600080fd5b505af1158015610be5573d6000803e3d6000fd5b505050506040513d601f19601f82011682018060405250810190610c09919061134a565b905080610c7e5760405162461bcd60e51b815260206004820152603860248201527f5265616374696f6e546f6b656e3a206661696c656420746f20617070726f766560448201527f20616c6c6f77616e636520746f205375706572546f6b656e000000000000000060648201526084016104cf565b50505b600a546040516345977d0360e01b8152600481018490526001600160a01b03909116906345977d0390602401600060405180830381600087803b158015610cc757600080fd5b505af1158015610cdb573d6000803e3d6000fd5b5050600554600654600a54600c546040805160008152602081019091526001600160a01b0394851696506339255d5b95509284169363317e182f60e11b93610d399391909116913391600160a01b909104600b0b90604481016115b5565b60408051601f198184030181529181526020820180516001600160e01b03166001600160e01b03199485161790525160e085901b9092168252610d7f9291600401611656565b600060405180830381600087803b158015610d9957600080fd5b505af1158015610dad573d6000803e3d6000fd5b505050506040513d6000823e601f3d908101601f19168201604052610dd5919081019061136a565b50336000818152600d602090815260409182902054825193845290830185905282820152517f1449c6dd7851abc30abf37f57715f492010519147cc2652fbc38202c18a6ee909181900360600190a15050565b6001600160a01b038316610e8a5760405162461bcd60e51b8152602060048201526024808201527f45524332303a20617070726f76652066726f6d20746865207a65726f206164646044820152637265737360e01b60648201526084016104cf565b6001600160a01b038216610eeb5760405162461bcd60e51b815260206004820152602260248201527f45524332303a20617070726f766520746f20746865207a65726f206164647265604482015261737360f01b60648201526084016104cf565b6001600160a01b0383811660008181526001602090815260408083209487168084529482529182902085905590518481527f8c5be1e5ebec7d5bd14f71427d1e84f3dd0314c0f7b2291e5b200ac8c7c3b925910160405180910390a3505050565b6001600160a01b038316610fb05760405162461bcd60e51b815260206004820152602560248201527f45524332303a207472616e736665722066726f6d20746865207a65726f206164604482015264647265737360d81b60648201526084016104cf565b6001600160a01b0382166110125760405162461bcd60e51b815260206004820152602360248201527f45524332303a207472616e7366657220746f20746865207a65726f206164647260448201526265737360e81b60648201526084016104cf565b6001600160a01b0383166000908152602081905260409020548181101561108a5760405162461bcd60e51b815260206004820152602660248201527f45524332303a207472616e7366657220616d6f756e7420657863656564732062604482015265616c616e636560d01b60648201526084016104cf565b6001600160a01b038085166000908152602081905260408082208585039055918516815290812080548492906110c19084906116b0565b92505081905550826001600160a01b0316846001600160a01b03167fddf252ad1be2c89b69c2b068fc378daa952ba7f163c4a11628f55a4df523b3ef8460405161110d91815260200190565b60405180910390a35b50505050565b6001600160a01b0382166111725760405162461bcd60e51b815260206004820152601f60248201527f45524332303a206d696e7420746f20746865207a65726f20616464726573730060448201526064016104cf565b806002600082825461118491906116b0565b90915550506001600160a01b038216600090815260208190526040812080548392906111b19084906116b0565b90915550506040518181526001600160a01b038316906000907fddf252ad1be2c89b69c2b068fc378daa952ba7f163c4a11628f55a4df523b3ef9060200160405180910390a35050565b600067ffffffffffffffff808411156112165761121661175c565b604051601f8501601f19908116603f0116810190828211818310171561123e5761123e61175c565b8160405280935085815286868601111561125757600080fd5b6112658660208301876116df565b5050509392505050565b600060208284031215611280578081fd5b813561043a81611772565b60006020828403121561129c578081fd5b815161043a81611772565b600080604083850312156112b9578081fd5b82356112c481611772565b915060208301356112d481611772565b809150509250929050565b6000806000606084860312156112f3578081fd5b83356112fe81611772565b9250602084013561130e81611772565b929592945050506040919091013590565b60008060408385031215611331578182fd5b823561133c81611772565b946020939093013593505050565b60006020828403121561135b578081fd5b8151801515811461043a578182fd5b60006020828403121561137b578081fd5b815167ffffffffffffffff811115611391578182fd5b8201601f810184136113a1578182fd5b6113b0848251602084016111fb565b949350505050565b6000602082840312156113c9578081fd5b5051919050565b600080604083850312156113e2578182fd5b8235915060208301356112d481611772565b6000815180845261140c8160208601602086016116df565b601f01601f19169290920160200192915050565b80546000906002810460018083168061143a57607f831692505b602080841082141561145a57634e487b7160e01b86526022600452602486fd5b81801561146e576001811461147f576114ac565b60ff198616895284890196506114ac565b60008881526020902060005b868110156114a45781548b82015290850190830161148b565b505084890196505b50505050505092915050565b600082516114ca8184602087016116df565b600f60fb1b920191825250600101919050565b60006a7375706572746f6b656e7360a81b8252601760f91b80600b840152611508600c840186611420565b90815283519061151f8260018301602088016116df565b01600101949350505050565b60006a7375706572746f6b656e7360a81b8252601760f91b80600b840152611556600c840186611420565b90815283519061156d8260018301602088016116df565b600f60fb1b91016001810191909152600201949350505050565b600065029bab832b9160d51b825282516115a88160068501602087016116df565b9190910160060192915050565b6001600160a01b03858116825284166020820152600b83900b60408201526080606082018190526000906115eb908301846113f4565b9695505050505050565b6001600160a01b038516815260006003851061161f57634e487b7160e01b81526021600452602481fd5b8460208301526080604083015261163960808301856113f4565b828103606084015261164b81856113f4565b979650505050505050565b6001600160a01b038316815260606020820181905260009061167a908301846113f4565b8281036040938401526002815261060f60f31b6020820152919091019392505050565b60006020825261043a60208301846113f4565b600082198211156116c3576116c3611746565b500190565b6000828210156116da576116da611746565b500390565b60005b838110156116fa5781810151838201526020016116e2565b838111156111165750506000910152565b60028104600182168061171f57607f821691505b6020821081141561174057634e487b7160e01b600052602260045260246000fd5b50919050565b634e487b7160e01b600052601160045260246000fd5b634e487b7160e01b600052604160045260246000fd5b6001600160a01b038116811461178757600080fd5b5056fea264697066735822122010922c198b69952034336f51d9668716e45a4c2766990c7af8c38c5ad45fabd264736f6c63430008020033416464726573733a206c6f772d6c6576656c2064656c65676174652063616c6c206661696c6564a264697066735822122062ff0eae5107f9ba85cce369c77777b685bfaa00e44a8770bfa1e25c68c3fc5964736f6c63430008020033",
  "linkReferences": {},
  "deployedLinkReferences": {}
}