{
  "_format": "hh-sol-artifact-1",
  "contractName": "DummyErc721",
  "sourceName": "contracts/DummyErc721.sol",
  "abi": [
    {
      "inputs": [],
      "stateMutability": "nonpayable",
      "type": "constructor"
    },
    {
      "anonymous": false,
      "inputs": [
        {
          "indexed": true,
          "internalType": "address",
          "name": "owner",
          "type": "address"
        },
        {
          "indexed": true,
          "internalType": "address",
          "name": "approved",
          "type": "address"
        },
        {
          "indexed": true,
          "internalType": "uint256",
          "name": "tokenId",
          "type": "uint256"
        }
      ],
      "name": "Approval",
      "type": "event"
    },
    {
      "anonymous": false,
      "inputs": [
        {
          "indexed": true,
          "internalType": "address",
          "name": "owner",
          "type": "address"
        },
        {
          "indexed": true,
          "internalType": "address",
          "name": "operator",
          "type": "address"
        },
        {
          "indexed": false,
          "internalType": "bool",
          "name": "approved",
          "type": "bool"
        }
      ],
      "name": "ApprovalForAll",
      "type": "event"
    },
    {
      "anonymous": false,
      "inputs": [
        {
          "indexed": true,
          "internalType": "address",
          "name": "from",
          "type": "address"
        },
        {
          "indexed": true,
          "internalType": "address",
          "name": "to",
          "type": "address"
        },
        {
          "indexed": true,
          "internalType": "uint256",
          "name": "tokenId",
          "type": "uint256"
        }
      ],
      "name": "Transfer",
      "type": "event"
    },
    {
      "inputs": [
        {
          "internalType": "address",
          "name": "to",
          "type": "address"
        },
        {
          "internalType": "uint256",
          "name": "tokenId",
          "type": "uint256"
        }
      ],
      "name": "approve",
      "outputs": [],
      "stateMutability": "nonpayable",
      "type": "function"
    },
    {
      "inputs": [
        {
          "internalType": "address",
          "name": "owner",
          "type": "address"
        }
      ],
      "name": "balanceOf",
      "outputs": [
        {
          "internalType": "uint256",
          "name": "",
          "type": "uint256"
        }
      ],
      "stateMutability": "view",
      "type": "function"
    },
    {
      "inputs": [
        {
          "internalType": "uint256",
          "name": "tokenId",
          "type": "uint256"
        }
      ],
      "name": "getApproved",
      "outputs": [
        {
          "internalType": "address",
          "name": "",
          "type": "address"
        }
      ],
      "stateMutability": "view",
      "type": "function"
    },
    {
      "inputs": [
        {
          "internalType": "address",
          "name": "owner",
          "type": "address"
        },
        {
          "internalType": "address",
          "name": "operator",
          "type": "address"
        }
      ],
      "name": "isApprovedForAll",
      "outputs": [
        {
          "internalType": "bool",
          "name": "",
          "type": "bool"
        }
      ],
      "stateMutability": "view",
      "type": "function"
    },
    {
      "inputs": [
        {
          "internalType": "uint256",
          "name": "tokenId",
          "type": "uint256"
        }
      ],
      "name": "mint",
      "outputs": [],
      "stateMutability": "nonpayable",
      "type": "function"
    },
    {
      "inputs": [],
      "name": "name",
      "outputs": [
        {
          "internalType": "string",
          "name": "",
          "type": "string"
        }
      ],
      "stateMutability": "view",
      "type": "function"
    },
    {
      "inputs": [
        {
          "internalType": "uint256",
          "name": "tokenId",
          "type": "uint256"
        }
      ],
      "name": "ownerOf",
      "outputs": [
        {
          "internalType": "address",
          "name": "",
          "type": "address"
        }
      ],
      "stateMutability": "view",
      "type": "function"
    },
    {
      "inputs": [
        {
          "internalType": "address",
          "name": "from",
          "type": "address"
        },
        {
          "internalType": "address",
          "name": "to",
          "type": "address"
        },
        {
          "internalType": "uint256",
          "name": "tokenId",
          "type": "uint256"
        }
      ],
      "name": "safeTransferFrom",
      "outputs": [],
      "stateMutability": "nonpayable",
      "type": "function"
    },
    {
      "inputs": [
        {
          "internalType": "address",
          "name": "from",
          "type": "address"
        },
        {
          "internalType": "address",
          "name": "to",
          "type": "address"
        },
        {
          "internalType": "uint256",
          "name": "tokenId",
          "type": "uint256"
        },
        {
          "internalType": "bytes",
          "name": "_data",
          "type": "bytes"
        }
      ],
      "name": "safeTransferFrom",
      "outputs": [],
      "stateMutability": "nonpayable",
      "type": "function"
    },
    {
      "inputs": [
        {
          "internalType": "address",
          "name": "operator",
          "type": "address"
        },
        {
          "internalType": "bool",
          "name": "approved",
          "type": "bool"
        }
      ],
      "name": "setApprovalForAll",
      "outputs": [],
      "stateMutability": "nonpayable",
      "type": "function"
    },
    {
      "inputs": [
        {
          "internalType": "bytes4",
          "name": "interfaceId",
          "type": "bytes4"
        }
      ],
      "name": "supportsInterface",
      "outputs": [
        {
          "internalType": "bool",
          "name": "",
          "type": "bool"
        }
      ],
      "stateMutability": "view",
      "type": "function"
    },
    {
      "inputs": [],
      "name": "symbol",
      "outputs": [
        {
          "internalType": "string",
          "name": "",
          "type": "string"
        }
      ],
      "stateMutability": "view",
      "type": "function"
    },
    {
      "inputs": [
        {
          "internalType": "uint256",
          "name": "tokenId",
          "type": "uint256"
        }
      ],
      "name": "tokenURI",
      "outputs": [
        {
          "internalType": "string",
          "name": "",
          "type": "string"
        }
      ],
      "stateMutability": "view",
      "type": "function"
    },
    {
      "inputs": [
        {
          "internalType": "address",
          "name": "from",
          "type": "address"
        },
        {
          "internalType": "address",
          "name": "to",
          "type": "address"
        },
        {
          "internalType": "uint256",
          "name": "tokenId",
          "type": "uint256"
        }
      ],
      "name": "transferFrom",
      "outputs": [],
      "stateMutability": "nonpayable",
      "type": "function"
    }
  ],
  "bytecode": "0x60806040523480156200001157600080fd5b50604080518082018252600b81526a44756d6d7945726337323160a81b60208083019182528351808501909452600684526544554d37323160d01b908401528151919291620000639160009162000082565b5080516200007990600190602084019062000082565b50505062000165565b828054620000909062000128565b90600052602060002090601f016020900481019282620000b45760008555620000ff565b82601f10620000cf57805160ff1916838001178555620000ff565b82800160010185558215620000ff579182015b82811115620000ff578251825591602001919060010190620000e2565b506200010d92915062000111565b5090565b5b808211156200010d576000815560010162000112565b6002810460018216806200013d57607f821691505b602082108114156200015f57634e487b7160e01b600052602260045260246000fd5b50919050565b61141280620001756000396000f3fe608060405234801561001057600080fd5b50600436106100ea5760003560e01c806370a082311161008c578063a22cb46511610066578063a22cb465146101e1578063b88d4fde146101f4578063c87b56dd14610207578063e985e9c51461021a576100ea565b806370a08231146101a557806395d89b41146101c6578063a0712d68146101ce576100ea565b8063095ea7b3116100c8578063095ea7b31461015757806323b872dd1461016c57806342842e0e1461017f5780636352211e14610192576100ea565b806301ffc9a7146100ef57806306fdde0314610117578063081812fc1461012c575b600080fd5b6101026100fd36600461110d565b610256565b60405190151581526020015b60405180910390f35b61011f6102aa565b60405161010e91906111f5565b61013f61013a366004611145565b61033c565b6040516001600160a01b03909116815260200161010e565b61016a6101653660046110e4565b6103d6565b005b61016a61017a366004610f9a565b6104ec565b61016a61018d366004610f9a565b61051d565b61013f6101a0366004611145565b610538565b6101b86101b3366004610f4e565b6105af565b60405190815260200161010e565b61011f610636565b61016a6101dc366004611145565b610645565b61016a6101ef3660046110aa565b610652565b61016a610202366004610fd5565b610724565b61011f610215366004611145565b61075c565b610102610228366004610f68565b6001600160a01b03918216600090815260056020908152604080832093909416825291909152205460ff1690565b60006001600160e01b031982166380ac58cd60e01b148061028757506001600160e01b03198216635b5e139f60e01b145b806102a257506301ffc9a760e01b6001600160e01b03198316145b90505b919050565b6060600080546102b99061131a565b80601f01602080910402602001604051908101604052809291908181526020018280546102e59061131a565b80156103325780601f1061030757610100808354040283529160200191610332565b820191906000526020600020905b81548152906001019060200180831161031557829003601f168201915b5050505050905090565b6000818152600260205260408120546001600160a01b03166103ba5760405162461bcd60e51b815260206004820152602c60248201527f4552433732313a20617070726f76656420717565727920666f72206e6f6e657860448201526b34b9ba32b73a103a37b5b2b760a11b60648201526084015b60405180910390fd5b506000908152600460205260409020546001600160a01b031690565b60006103e182610538565b9050806001600160a01b0316836001600160a01b0316141561044f5760405162461bcd60e51b815260206004820152602160248201527f4552433732313a20617070726f76616c20746f2063757272656e74206f776e656044820152603960f91b60648201526084016103b1565b336001600160a01b038216148061046b575061046b8133610228565b6104dd5760405162461bcd60e51b815260206004820152603860248201527f4552433732313a20617070726f76652063616c6c6572206973206e6f74206f7760448201527f6e6572206e6f7220617070726f76656420666f7220616c6c000000000000000060648201526084016103b1565b6104e78383610844565b505050565b6104f633826108b2565b6105125760405162461bcd60e51b81526004016103b19061125a565b6104e78383836109a9565b6104e783838360405180602001604052806000815250610724565b6000818152600260205260408120546001600160a01b0316806102a25760405162461bcd60e51b815260206004820152602960248201527f4552433732313a206f776e657220717565727920666f72206e6f6e657869737460448201526832b73a103a37b5b2b760b91b60648201526084016103b1565b60006001600160a01b03821661061a5760405162461bcd60e51b815260206004820152602a60248201527f4552433732313a2062616c616e636520717565727920666f7220746865207a65604482015269726f206164647265737360b01b60648201526084016103b1565b506001600160a01b031660009081526003602052604090205490565b6060600180546102b99061131a565b61064f3382610b49565b50565b6001600160a01b0382163314156106ab5760405162461bcd60e51b815260206004820152601960248201527f4552433732313a20617070726f766520746f2063616c6c65720000000000000060448201526064016103b1565b3360008181526005602090815260408083206001600160a01b0387168085529252909120805460ff1916841515179055906001600160a01b03167f17307eab39ab6107e8899845ad3d59bd9653f200f220920489ca2b5937696c3183604051610718911515815260200190565b60405180910390a35050565b61072e33836108b2565b61074a5760405162461bcd60e51b81526004016103b19061125a565b61075684848484610b67565b50505050565b6000818152600260205260409020546060906001600160a01b03166107db5760405162461bcd60e51b815260206004820152602f60248201527f4552433732314d657461646174613a2055524920717565727920666f72206e6f60448201526e3732bc34b9ba32b73a103a37b5b2b760891b60648201526084016103b1565b60006107f260408051602081019091526000815290565b90506000815111610812576040518060200160405280600081525061083d565b8061081c84610b9a565b60405160200161082d929190611189565b6040516020818303038152906040525b9392505050565b600081815260046020526040902080546001600160a01b0319166001600160a01b038416908117909155819061087982610538565b6001600160a01b03167f8c5be1e5ebec7d5bd14f71427d1e84f3dd0314c0f7b2291e5b200ac8c7c3b92560405160405180910390a45050565b6000818152600260205260408120546001600160a01b031661092b5760405162461bcd60e51b815260206004820152602c60248201527f4552433732313a206f70657261746f7220717565727920666f72206e6f6e657860448201526b34b9ba32b73a103a37b5b2b760a11b60648201526084016103b1565b600061093683610538565b9050806001600160a01b0316846001600160a01b031614806109715750836001600160a01b03166109668461033c565b6001600160a01b0316145b806109a157506001600160a01b0380821660009081526005602090815260408083209388168352929052205460ff165b949350505050565b826001600160a01b03166109bc82610538565b6001600160a01b031614610a245760405162461bcd60e51b815260206004820152602960248201527f4552433732313a207472616e73666572206f6620746f6b656e2074686174206960448201526839903737ba1037bbb760b91b60648201526084016103b1565b6001600160a01b038216610a865760405162461bcd60e51b8152602060048201526024808201527f4552433732313a207472616e7366657220746f20746865207a65726f206164646044820152637265737360e01b60648201526084016103b1565b610a91600082610844565b6001600160a01b0383166000908152600360205260408120805460019290610aba9084906112d7565b90915550506001600160a01b0382166000908152600360205260408120805460019290610ae89084906112ab565b909155505060008181526002602052604080822080546001600160a01b0319166001600160a01b0386811691821790925591518493918716917fddf252ad1be2c89b69c2b068fc378daa952ba7f163c4a11628f55a4df523b3ef91a4505050565b610b63828260405180602001604052806000815250610cb5565b5050565b610b728484846109a9565b610b7e84848484610ce8565b6107565760405162461bcd60e51b81526004016103b190611208565b606081610bbf57506040805180820190915260018152600360fc1b60208201526102a5565b8160005b8115610be95780610bd381611355565b9150610be29050600a836112c3565b9150610bc3565b60008167ffffffffffffffff811115610c1257634e487b7160e01b600052604160045260246000fd5b6040519080825280601f01601f191660200182016040528015610c3c576020820181803683370190505b5090505b84156109a157610c516001836112d7565b9150610c5e600a86611370565b610c699060306112ab565b60f81b818381518110610c8c57634e487b7160e01b600052603260045260246000fd5b60200101906001600160f81b031916908160001a905350610cae600a866112c3565b9450610c40565b610cbf8383610df5565b610ccc6000848484610ce8565b6104e75760405162461bcd60e51b81526004016103b190611208565b60006001600160a01b0384163b15610dea57604051630a85bd0160e11b81526001600160a01b0385169063150b7a0290610d2c9033908990889088906004016111b8565b602060405180830381600087803b158015610d4657600080fd5b505af1925050508015610d76575060408051601f3d908101601f19168201909252610d7391810190611129565b60015b610dd0573d808015610da4576040519150601f19603f3d011682016040523d82523d6000602084013e610da9565b606091505b508051610dc85760405162461bcd60e51b81526004016103b190611208565b805181602001fd5b6001600160e01b031916630a85bd0160e11b1490506109a1565b506001949350505050565b6001600160a01b038216610e4b5760405162461bcd60e51b815260206004820181905260248201527f4552433732313a206d696e7420746f20746865207a65726f206164647265737360448201526064016103b1565b6000818152600260205260409020546001600160a01b031615610eb05760405162461bcd60e51b815260206004820152601c60248201527f4552433732313a20746f6b656e20616c7265616479206d696e7465640000000060448201526064016103b1565b6001600160a01b0382166000908152600360205260408120805460019290610ed99084906112ab565b909155505060008181526002602052604080822080546001600160a01b0319166001600160a01b03861690811790915590518392907fddf252ad1be2c89b69c2b068fc378daa952ba7f163c4a11628f55a4df523b3ef908290a45050565b80356001600160a01b03811681146102a557600080fd5b600060208284031215610f5f578081fd5b61083d82610f37565b60008060408385031215610f7a578081fd5b610f8383610f37565b9150610f9160208401610f37565b90509250929050565b600080600060608486031215610fae578081fd5b610fb784610f37565b9250610fc560208501610f37565b9150604084013590509250925092565b60008060008060808587031215610fea578081fd5b610ff385610f37565b935061100160208601610f37565b925060408501359150606085013567ffffffffffffffff80821115611024578283fd5b818701915087601f830112611037578283fd5b813581811115611049576110496113b0565b604051601f8201601f19908116603f01168101908382118183101715611071576110716113b0565b816040528281528a6020848701011115611089578586fd5b82602086016020830137918201602001949094529598949750929550505050565b600080604083850312156110bc578182fd5b6110c583610f37565b9150602083013580151581146110d9578182fd5b809150509250929050565b600080604083850312156110f6578182fd5b6110ff83610f37565b946020939093013593505050565b60006020828403121561111e578081fd5b813561083d816113c6565b60006020828403121561113a578081fd5b815161083d816113c6565b600060208284031215611156578081fd5b5035919050565b600081518084526111758160208601602086016112ee565b601f01601f19169290920160200192915050565b6000835161119b8184602088016112ee565b8351908301906111af8183602088016112ee565b01949350505050565b6001600160a01b03858116825284166020820152604081018390526080606082018190526000906111eb9083018461115d565b9695505050505050565b60006020825261083d602083018461115d565b60208082526032908201527f4552433732313a207472616e7366657220746f206e6f6e20455243373231526560408201527131b2b4bb32b91034b6b83632b6b2b73a32b960711b606082015260800190565b60208082526031908201527f4552433732313a207472616e736665722063616c6c6572206973206e6f74206f6040820152701ddb995c881b9bdc88185c1c1c9bdd9959607a1b606082015260800190565b600082198211156112be576112be611384565b500190565b6000826112d2576112d261139a565b500490565b6000828210156112e9576112e9611384565b500390565b60005b838110156113095781810151838201526020016112f1565b838111156107565750506000910152565b60028104600182168061132e57607f821691505b6020821081141561134f57634e487b7160e01b600052602260045260246000fd5b50919050565b600060001982141561136957611369611384565b5060010190565b60008261137f5761137f61139a565b500690565b634e487b7160e01b600052601160045260246000fd5b634e487b7160e01b600052601260045260246000fd5b634e487b7160e01b600052604160045260246000fd5b6001600160e01b03198116811461064f57600080fdfea2646970667358221220d69c8acea11a6aff60a257d5537b52afe6ed8645b94c9643e363cf8f54dfefa564736f6c63430008020033",
  "linkReferences": {},
  "deployedLinkReferences": {}
}